{
  "contractName": "LogisticRegressionModel",
  "abi": [
    {
      "inputs": [
        {
          "internalType": "uint256",
          "name": "",
          "type": "uint256"
        }
      ],
      "name": "coefs",
      "outputs": [
        {
          "internalType": "uint256",
          "name": "",
          "type": "uint256"
        }
      ],
      "stateMutability": "view",
      "type": "function"
    },
    {
      "inputs": [
        {
          "internalType": "uint256",
          "name": "",
          "type": "uint256"
        }
      ],
      "name": "intercepts",
      "outputs": [
        {
          "internalType": "uint256",
          "name": "",
          "type": "uint256"
        }
      ],
      "stateMutability": "view",
      "type": "function"
    },
    {
      "inputs": [
        {
          "internalType": "uint256[]",
          "name": "_coefs",
          "type": "uint256[]"
        },
        {
          "internalType": "uint256[]",
          "name": "_intercepts",
          "type": "uint256[]"
        }
      ],
      "name": "setModelParameters",
      "outputs": [],
      "stateMutability": "nonpayable",
      "type": "function"
    },
    {
      "inputs": [],
      "name": "getModelParameters",
      "outputs": [
        {
          "internalType": "uint256[]",
          "name": "",
          "type": "uint256[]"
        },
        {
          "internalType": "uint256[]",
          "name": "",
          "type": "uint256[]"
        }
      ],
      "stateMutability": "view",
      "type": "function"
    }
  ],
  "bytecode": "0x608060405234801561000f575f80fd5b506107098061001d5f395ff3fe608060405234801561000f575f80fd5b506004361061004a575f3560e01c80632afe4cbf1461004e5780635cf5b69e1461007e578063a96842d71461009a578063c8284e6d146100ca575b5f80fd5b6100686004803603810190610063919061032d565b6100e9565b6040516100759190610367565b60405180910390f35b610098600480360381019061009391906104d0565b610109565b005b6100b460048036038101906100af919061032d565b6101e3565b6040516100c19190610367565b60405180910390f35b6100d2610202565b6040516100e09291906105fd565b60405180910390f35b600181815481106100f8575f80fd5b905f5260205f20015f915090505481565b5f8061011591906102b0565b60015f61012291906102b0565b5f5b825181101561017f575f83828151811061014157610140610632565b5b6020026020010151908060018154018082558091505060019003905f5260205f20015f909190919091505580806101779061068c565b915050610124565b505f5b81518110156101de5760018282815181106101a05761019f610632565b5b6020026020010151908060018154018082558091505060019003905f5260205f20015f909190919091505580806101d69061068c565b915050610182565b505050565b5f81815481106101f1575f80fd5b905f5260205f20015f915090505481565b6060805f60018180548060200260200160405190810160405280929190818152602001828054801561025157602002820191905f5260205f20905b81548152602001906001019080831161023d575b50505050509150808054806020026020016040519081016040528092919081815260200182805480156102a157602002820191905f5260205f20905b81548152602001906001019080831161028d575b50505050509050915091509091565b5080545f8255905f5260205f20908101906102cb91906102ce565b50565b5b808211156102e5575f815f9055506001016102cf565b5090565b5f604051905090565b5f80fd5b5f80fd5b5f819050919050565b61030c816102fa565b8114610316575f80fd5b50565b5f8135905061032781610303565b92915050565b5f60208284031215610342576103416102f2565b5b5f61034f84828501610319565b91505092915050565b610361816102fa565b82525050565b5f60208201905061037a5f830184610358565b92915050565b5f80fd5b5f601f19601f8301169050919050565b7f4e487b71000000000000000000000000000000000000000000000000000000005f52604160045260245ffd5b6103ca82610384565b810181811067ffffffffffffffff821117156103e9576103e8610394565b5b80604052505050565b5f6103fb6102e9565b905061040782826103c1565b919050565b5f67ffffffffffffffff82111561042657610425610394565b5b602082029050602081019050919050565b5f80fd5b5f61044d6104488461040c565b6103f2565b905080838252602082019050602084028301858111156104705761046f610437565b5b835b8181101561049957806104858882610319565b845260208401935050602081019050610472565b5050509392505050565b5f82601f8301126104b7576104b6610380565b5b81356104c784826020860161043b565b91505092915050565b5f80604083850312156104e6576104e56102f2565b5b5f83013567ffffffffffffffff811115610503576105026102f6565b5b61050f858286016104a3565b925050602083013567ffffffffffffffff8111156105305761052f6102f6565b5b61053c858286016104a3565b9150509250929050565b5f81519050919050565b5f82825260208201905092915050565b5f819050602082019050919050565b610578816102fa565b82525050565b5f610589838361056f565b60208301905092915050565b5f602082019050919050565b5f6105ab82610546565b6105b58185610550565b93506105c083610560565b805f5b838110156105f05781516105d7888261057e565b97506105e283610595565b9250506001810190506105c3565b5085935050505092915050565b5f6040820190508181035f83015261061581856105a1565b9050818103602083015261062981846105a1565b90509392505050565b7f4e487b71000000000000000000000000000000000000000000000000000000005f52603260045260245ffd5b7f4e487b71000000000000000000000000000000000000000000000000000000005f52601160045260245ffd5b5f610696826102fa565b91507fffffffffffffffffffffffffffffffffffffffffffffffffffffffffffffffff82036106c8576106c761065f565b5b60018201905091905056fea26469706673582212209cb1427437c88b59a640b65d4ebf67b3af25b33806368ec4a0082970565aa9c064736f6c63430008150033",
  "immutableReferences": {},
  "source": "// SPDX-License-Identifier: UNLICENSED\r\npragma solidity ^0.8.0;\r\n\r\ncontract LogisticRegressionModel {\r\n    uint256[] public coefs;\r\n    uint256[] public intercepts;\r\n\r\n    function setModelParameters(uint256[] memory _coefs, uint256[] memory _intercepts) public {\r\n        delete coefs;\r\n        delete intercepts;\r\n        for (uint i = 0; i < _coefs.length; i++) {\r\n            coefs.push(_coefs[i]);\r\n        }\r\n        for (uint i = 0; i < _intercepts.length; i++) {\r\n            intercepts.push(_intercepts[i]);\r\n        }\r\n    }\r\n\r\n    function getModelParameters() public view returns (uint256[] memory, uint256[] memory) {\r\n        return (coefs, intercepts);\r\n    }\r\n}\r\n",
  "sourcePath": "C:\\Users\\techn\\Downloads\\Compressed\\CFLProject\\Cluster Fed Learning\\contracts\\LR.sol",
  "compiler": {
    "name": "solc",
    "version": "0.8.21+commit.d9974bed.Emscripten.clang"
  },
  "schemaVersion": "3.4.16",
  "updatedAt": "2025-01-23T06:12:44.044Z",
  "devdoc": {
    "kind": "dev",
    "methods": {},
    "version": 1
  },
  "userdoc": {
    "kind": "user",
    "methods": {},
    "version": 1
  }
}