{
  "contractName": "LogisticRegressionModel",
  "abi": [
    {
      "inputs": [],
      "stateMutability": "nonpayable",
      "type": "constructor"
    },
    {
      "inputs": [
        {
          "internalType": "uint256",
          "name": "",
          "type": "uint256"
        }
      ],
      "name": "coefs",
      "outputs": [
        {
          "internalType": "int256",
          "name": "",
          "type": "int256"
        }
      ],
      "stateMutability": "view",
      "type": "function",
      "constant": true
    },
    {
      "inputs": [],
      "name": "intercepts",
      "outputs": [
        {
          "internalType": "int256",
          "name": "",
          "type": "int256"
        }
      ],
      "stateMutability": "view",
      "type": "function",
      "constant": true
    },
    {
      "inputs": [
        {
          "internalType": "int256[13]",
          "name": "_coefs",
          "type": "int256[13]"
        },
        {
          "internalType": "int256",
          "name": "_intercepts",
          "type": "int256"
        }
      ],
      "name": "setModelParameters",
      "outputs": [],
      "stateMutability": "nonpayable",
      "type": "function"
    },
    {
      "inputs": [],
      "name": "getModelParameters",
      "outputs": [
        {
          "internalType": "int256[13]",
          "name": "",
          "type": "int256[13]"
        },
        {
          "internalType": "int256",
          "name": "",
          "type": "int256"
        }
      ],
      "stateMutability": "view",
      "type": "function",
      "constant": true
    }
  ],
  "bytecode": "0x608060405234801561001057600080fd5b5060005b600d81101561004a5760008082600d811061003257610031610058565b5b01819055508080610042906100c0565b915050610014565b506000600d81905550610108565b7f4e487b7100000000000000000000000000000000000000000000000000000000600052603260045260246000fd5b7f4e487b7100000000000000000000000000000000000000000000000000000000600052601160045260246000fd5b6000819050919050565b60006100cb826100b6565b91507fffffffffffffffffffffffffffffffffffffffffffffffffffffffffffffffff82036100fd576100fc610087565b5b600182019050919050565b6105f9806101176000396000f3fe608060405234801561001057600080fd5b5060043610610069576000357c01000000000000000000000000000000000000000000000000000000009004806348b097811461006e578063a96842d71461008c578063b4e1a10c146100bc578063c8284e6d146100d8575b600080fd5b6100766100f7565b6040516100839190610205565b60405180910390f35b6100a660048036038101906100a19190610265565b6100fd565b6040516100b39190610205565b60405180910390f35b6100d660048036038101906100d19190610405565b610118565b005b6100e0610174565b6040516100ee9291906104f2565b60405180910390f35b600d5481565b600081600d811061010d57600080fd5b016000915090505481565b60005b600d811015610168578281600d81106101375761013661051d565b5b6020020151600082600d81106101505761014f61051d565b5b018190555080806101609061057b565b91505061011b565b5080600d819055505050565b61017c6101c9565b600080600d5481600d806020026040519081016040528092919082600d80156101ba576020028201915b8154815260200190600101908083116101a6575b50505050509150915091509091565b604051806101a00160405280600d90602082028036833780820191505090505090565b6000819050919050565b6101ff816101ec565b82525050565b600060208201905061021a60008301846101f6565b92915050565b6000604051905090565b600080fd5b6000819050919050565b6102428161022f565b811461024d57600080fd5b50565b60008135905061025f81610239565b92915050565b60006020828403121561027b5761027a61022a565b5b600061028984828501610250565b91505092915050565b600080fd5b6000601f19601f8301169050919050565b7f4e487b7100000000000000000000000000000000000000000000000000000000600052604160045260246000fd5b6102e082610297565b810181811067ffffffffffffffff821117156102ff576102fe6102a8565b5b80604052505050565b6000610312610220565b905061031e82826102d7565b919050565b600067ffffffffffffffff82111561033e5761033d6102a8565b5b602082029050919050565b600080fd5b610357816101ec565b811461036257600080fd5b50565b6000813590506103748161034e565b92915050565b600061038d61038884610323565b610308565b905080602084028301858111156103a7576103a6610349565b5b835b818110156103d057806103bc8882610365565b8452602084019350506020810190506103a9565b5050509392505050565b600082601f8301126103ef576103ee610292565b5b600d6103fc84828561037a565b91505092915050565b6000806101c0838503121561041d5761041c61022a565b5b600061042b858286016103da565b9250506101a061043d85828601610365565b9150509250929050565b6000600d9050919050565b600081905092915050565b6000819050919050565b610470816101ec565b82525050565b60006104828383610467565b60208301905092915050565b6000602082019050919050565b6104a481610447565b6104ae8184610452565b92506104b98261045d565b8060005b838110156104ea5781516104d18782610476565b96506104dc8361048e565b9250506001810190506104bd565b505050505050565b60006101c082019050610508600083018561049b565b6105166101a08301846101f6565b9392505050565b7f4e487b7100000000000000000000000000000000000000000000000000000000600052603260045260246000fd5b7f4e487b7100000000000000000000000000000000000000000000000000000000600052601160045260246000fd5b60006105868261022f565b91507fffffffffffffffffffffffffffffffffffffffffffffffffffffffffffffffff82036105b8576105b761054c565b5b60018201905091905056fea264697066735822122092257111ed8b09c110bc6e1e7b8cff35e8e653f113600d15fecf22038c3e97d764736f6c63430008150033",
  "immutableReferences": {},
  "source": "// SPDX-License-Identifier: MIT\npragma solidity ^0.8.0;\n\ncontract LogisticRegressionModel {\n    int256[13] public coefs;\n    int256 public intercepts;\n    constructor() public {\n        for (uint i = 0; i < 13; i++) {\n            coefs[i] = 0;\n        }\n        intercepts = 0;\n    }\n\n    function setModelParameters(int256[13] memory _coefs, int256 _intercepts) public {\n        for (uint i = 0; i < 13; i++) {\n            coefs[i] = _coefs[i];\n        }\n        intercepts = _intercepts;\n    }\n\n    function getModelParameters() public view returns (int256[13] memory, int256) {\n        return (coefs, intercepts);\n    }\n}\n",
  "sourcePath": "C:\\Users\\techn\\Downloads\\Compressed\\CFLProject\\Blockchain CFL\\Cluster 1\\contracts\\Migrations.sol",
  "compiler": {
    "name": "solc",
    "version": "0.8.21+commit.d9974bed.Emscripten.clang"
  },
  "schemaVersion": "3.4.16",
  "updatedAt": "2025-05-06T09:30:31.995Z",
  "networkType": "ethereum",
  "devdoc": {
    "kind": "dev",
    "methods": {},
    "version": 1
  },
  "userdoc": {
    "kind": "user",
    "methods": {},
    "version": 1
  }
}